:020000020000FC
:100000000FEF0DBF08E00EBF00E00093C1000FEF3F
:1000100004B900E005B90FE107B900E208B90FE043
:100020000AB900EF0BB900E80093610004E0009307
:1000300061004427662788270E9427000E94470006
:100040000E9467000E946E000E947500F5CF29B1E2
:1000500025FF01C00CC00E948E0029B125FF01C000
:1000600006C04A954F7029B125FFFDCF0FC029B1B9
:1000700024FF01C00BC00E948E0029B124FF01C0E3
:1000800005C043954F7029B124FFFDCF089529B1D4
:1000900026FF01C00CC00E948E0029B126FF01C0BE
:1000A00006C06A956F7029B126FFFDCF0FC029B138
:1000B00027FF01C00BC00E948E0029B127FF01C09D
:1000C00005C063956F7029B127FFFDCF08950BB16F
:1000D000007F142F1F70012B0BB9089508B1007F0A
:1000E000162F1F70012B08B9089536B135FD15C0C4
:1000F00000C00E948E0036B135FD0FC000C0842FB5
:10010000860F582F5E7155B984FF02C0449A01C012
:10011000449836B135FD01C0FCCF0895A1E0BB275E
:0C012000B395B030E9F7AA95D9F708951F
:00000001FF
